:100000000C9440090C9468090C9468090C946809D4
:100010000C9468090C9468090C9468090C9468099C
:100020000C9468090C9468090C947F130C94EE13DB
:100030000C9468090C9468090C9468090C9468097C
:100040000C9468090C9468090C9468090C9468096C
:100050000C9468090C9468090C9468090C94201697
:100060000C9468090C9468090C9468090C9468094C
:100070000C9468090C9468090C9468090C9468093C
:100080000C9468090C9468090C9468090C9468092C
:100090000C9468090C9468090C9468090C9468091C
:1000A0000C9468090C9468090C94680905A84CCD57
:1000B000B2D44EB93836A9020C50B9918688083CA2
:1000C000A6AAAA2ABE000000803F09100000A0A036
:1000D00001010404505004040101A0A0000000002C
:1000E00002020000070705070707000002020000E0
:1000F0000000505000008181AAAA81810000505068
:1001000000000000010100000303020303030000DC
:100110000101000009107F7F447C577F447C677F8A
:10012000447C4F7F447C7F7F000000000000000083
:1001300000000000000000000000FFFF88F8AFFF93
:1001400088F8CFFF88F89FFF88F8FFFF00000000C5
:100150000000000000000000000000000000081087
:100160003C3C427E81FFC9FF95F7A5E74242000073
:10017000000000000000000000000000000000007F
:100180003C3C427E81FF89FF89FFA9FF4A7E3C3CBF
:10019000000000000000000000000000000000005F
:1001A00008100E0E27273F3F07077E7E50707070A5
:1001B000101000000000000000000000000000001F
:1001C00000000E0E0707070707077E7E507070704D
:1001D00010100000000000000000000000000000FF
:1001E00000000810F0F008F867FF01FF01FF67FF4B
:1001F00008F8F0F000000101020302030203020309
:1002000001010000787884FC33FF01FF01FF33FF18
:1002100084FC787800000000010101010101010166
:10022000000000000810FCFC02FEC4FC04FC02FEFE
:10023000C1FF02FEFCFC01010203040704070407DE
:10024000040702030101FCFC02FEC1FF02FE04FCE4
:10025000C4FC02FEFCFC01010203040704070407BE
:10026000040702030101091007075C5C2E3E3D3DB7
:100270003C3C3D3D2E3E5C5C07070000000000005A
:100280000000000000000000000000000F0FB8B8E0
:100290005C7C7A7A78787A7A5C7CB8B80F0F000048
:1002A000000000000000000000000000000000004E
:1002B00008100000F8F8C7FFC4FCFCFCFCFC3CFC88
:1002C000FFFF0707090F0B0F0F0F070707070707A8
:1002D00003038080FCFCE3FFE0FCFCFCFCFC9CFCDA
:1002E000FFFF0303040705070707030303030303D3
:1002F00001010810F0F008F83FFF44FC44FC44FC06
:1003000054FCFFFF00000101020302030203020389
:1003100002030101787884FC1EFE23FF22FE23FFE6
:100320002AFEFEFE000000000101010101010101A1
:100330000101000008100000F8F8FFFF84FC1CFC1D
:1003400004FC84FCFFFF0000030307070F0F0F0FDF
:100350000E0F0E0F07070000F8F8FCFCC7FF8CFC1F
:1003600007FF44FCFCFC000001010303070707072B
:10037000070707070303081080800000FEFE08F847
:1003800068F808F888F8FEFE0202030307070E0F5C
:100390000E0F0E0F0E0F070740408080F8F80EFE7C
:1003A00038F80EFE48F8F8F80101010103030707C9
:1003B000070707070707030309100000545400004C
:1003C0000E0EAAAE0E0E00005454000000000000F5
:1003D00008080202000002020808000000000000F5
:1003E000A8A800001C1C545C1C1C0000A8A800004D
:1003F00000000000000008080505080800000000D3
:1004000000000910F0F010F050F010F030F010F093
:1004100090F010F0F0F00F0F01010F0F01010F0F1E
:1004200001010F0F01010F0FE0E020E0A0E020E04C
:1004300060E020E020E020E0E0E00F0F02030E0F7C
:1004400002030E0F02030F0F02030F0F0810C0C0AC
:1004500020E010F030F090F05070202000000303F6
:100460000407080F090F0A0E0A0E04040000C0C09A
:1004700020E010F010F010F050F020E0C0C00303B6
:100480000407080F090F090F090F050703030810D8
:100490000000000000000000E0E0A0E0E0E080805C
:1004A00007070E0E0E0E0E0E0707000000000000DC
:1004B00000004040C0C00000E0E0A0E0E0E080803C
:1004C00007070E0E0F0F0E0E0707000000000000BA
:1004D0000810F0F008F864FC04FC04FC64FC08F864
:1004E000F0F0000001010E0F080F080F0E0F0101C0
:1004F0000000E0E010F0C8F808F808F8C8F810F0BC
:10050000E0E0010102030C0F080F080F0C0F0203BB
:1005100001010810F8F804FC32FE02FE02FE32FE71
:1005200004FCF8F803030407080F0407020302039E
:1005300004070303F8F804FC32FE02FE02FE32FE5A
:1005400004FCF8F803030407020302030407080F7E
:100550000407030309100000D0D0A0E0E0E0E0E0D1
:10056000E0E0A0E0D0D000000F0F0101030305057B
:1005700001010505030301010F0F0000A0A040C009
:10058000C0C0C0C0C0C040C0A0A000000E0E030389
:1005900007070B0B03030B0B070703030E0E0810D3
:1005A0000E0EF9FF3DFF3FFFFEFEFEFECEFEFCFC01
:1005B000000001010E0F02030303030303030F0FE7
:1005C0001C1CF2FE7AFE7EFEFCFCFCFC9CFCF8F897
:1005D0000000030300030C0F03030F0F03030303C7
:1005E0000810F0F008F804FCC4FC3EFEE2FEEAFE4F
:1005F000FCFC01010F0F0203020302030F0F0303B0
:100600000707E0E010F008F888F87CFCC4FCD4FC94
:10061000F8F8010102030E0F03030E0F0303030397
:1006200007070810F0F008F8C4FC24FC24FC24FCA4
:10063000A4FCF8F8000001010F0F020302030203FB
:1006400002030F0FE0E010F088F848F848F848F887
:1006500048F8F0F00101020307070C0F04070C0F24
:100660000507070708100000FCFCFEFE1FFF8FFFB8
:1006700007FF17FFFEFE000001010F0F0203030337
:10068000020302030F0F0000F8F8FCFC3EFE1EFE02
:100690000EFE2EFEFCFC0000010103030E0F0303FF
:1006A0000E0F02030303081028281818FCFC0EFE86
:1006B000CEFE0EFE2EFEFCFC000000000F0F02031B
:1006C0000203020302030F0F50503030F8F81CFCF5
:1006D0009CFC1CFC5CFCF8F80000000003030E0FFF
:1006E00003030E0F0203030300000000003E5B4FF4
:1006F0005B3E3E6B4F6B3E1C3E7C3E1C183C7E3C82
:10070000181C577D571C1C5E7F5E1C00183C18008F
:10071000FFE7C3E7FF0018241800FFE7DBE7FF301F
:10072000483A060E2629792926407F050507407F8D
:1007300005253F5A3CE73C5A7F3E1C1C08081C1C00
:100740003E7F14227F22145F5F005F5F06097F01F6
:100750007F006689956A606060606094A2FFA294E1
:1007600008047E040810207E201008082A1C0808AF
:100770001C2A08081E101010100C1E0C1E0C3038FD
:100780003E3830060E3E0E06000000000000005FFE
:1007900000000007000700147F147F14242A7F2A1A
:1007A00012231308646236495620500008070300DC
:1007B000001C2241000041221C002A1C7F1C2A0828
:1007C000083E08080080703000080808080800008B
:1007D00060600020100804023E5149453E00427FFF
:1007E000400072494949462141494D331814127F4E
:1007F0001027454545393C4A4949314121110907EE
:100800003649494936464949291E0000140000006E
:100810004034000000081422411414141414004140
:1008200022140802015909063E415D594E7C1211FD
:10083000127C7F494949363E414141227F41414135
:100840003E7F494949417F090909013E41415173B0
:100850007F0808087F00417F41002040413F017F21
:10086000081422417F404040407F021C027F7F04E9
:1008700008107F3E4141413E7F090909063E415132
:10088000215E7F09192946264949493203017F0122
:10089000033F4040403F1F2040201F3F4038403F23
:1008A000631408146303047804036159494D430039
:1008B0007F4141410204081020004141417F040270
:1008C0000102044040404040000307080020545407
:1008D00078407F28444438384444442838444428E5
:1008E0007F385454541800087E090218A4A49C7838
:1008F0007F0804047800447D40002040403D007F94
:100900001028440000417F40007C047804787C0873
:100910000404783844444438FC1824241818242447
:1009200018FC7C08040408485454542404043F442C
:10093000243C4040207C1C2040201C3C4030403C5B
:1009400044281028444C9090907C4464544C4400BB
:10095000083641000000770000004136080002011F
:100960000204023C2623263C1EA1A161123A40400B
:10097000207A385454555921555579412154547889
:1009800041215554784020545579400C1E52721222
:1009900039555555593954545459395554545800AA
:1009A00000457C410002457D420001457C40F02924
:1009B0002429F0F0282528F07C5455450020545473
:1009C0007C547C0A097F49324949493232484848B7
:1009D00032324A4848303A4141217A3A42402078FE
:1009E000009DA0A07D39444444393D4040403D3CF9
:1009F00024FF2424487E4943662B2FFC2F2BFF091C
:100A000029F620C0887E090320545479410000440F
:100A10007D413048484A32384040227A007A0A0AFA
:100A2000727D0D19317D2629292F2826292929266D
:100A300030484D4020380808080808080808382FB2
:100A400010C8ACBA2F102834FA00007B000008143C
:100A50002A142222142A14089500220095AA00556F
:100A600000AAAA55AA55AA000000FF00101010FF06
:100A700000141414FF001010FF00FF1010F010F00D
:100A8000141414FC001414F700FF0000FF00FF14FE
:100A900014F404FC141417101F10101F101F14144A
:100AA000141F00101010F0000000001F1010101094
:100AB0001F10101010F010000000FF101010101088
:100AC00010101010FF10000000FF140000FF00FFC6
:100AD00000001F10170000FC04F414141710171462
:100AE00014F404F40000FF00F71414141414141484
:100AF000F700F7141414171410101F101F141414F7
:100B0000F4141010F010F000001F101F0000001F60
:100B100014000000FC140000F010F01010FF10FF93
:100B2000141414FF141010101F00000000F010FF28
:100B3000FFFFFFFFF0F0F0F0F0FFFFFF000000000C
:100B400000FFFF0F0F0F0F0F38444438447C2A2A50
:100B50003E147E02020606027E027E026355494171
:100B6000633844443C04407E201E2006027E02027C
:100B700099A5E7A5991C2A492A1C4C7201724C3090
:100B80004A4D4D303048784830BC625A463D3E4967
:100B90004949007E0101017E2A2A2A2A2A44445F0B
:100BA000444440514A444040444A51400000FF01FF
:100BB00003E080FF000008086B6B0836123624360D
:100BC000060F090F06000018180000001010003072
:100BD00040FF0101001F01011E00191D1712003CFA
:100BE0003C3C3C0000000000F0F89C8E8783878E20
:100BF0009CF8F00000FEFF0303030303070EFCF85C
:100C00000000FEFF0303030303070EFCF80000FFD0
:100C1000FF00000000000000FFFF0000FEFF8383D4
:100C2000838383C7EE7C380000F8FC0E07030303C0
:100C3000070EFCF800003F7FE0C08080C0E07F3FEF
:100C4000FFFF01010101010101FFFF0000FFFF0C97
:100C50000C0C0C1C3E77E3C100007FFFC0C0C0C07D
:100C6000C0E0703F1F00001F3F70E0C0C0C0E070D8
:100C70003F1F00007FFFC1C1C1C1C1E3773E1C001F
:100C8000001F3F70E0C0C0C0E0703F1F00000000C8
:100C90000001FFFF01000000D5F08D14A1C881CF35
:100CA000D9F1AF200053454C4543544544005072A0
:100CB0006963653A0005087E7949797E0408081C55
:100CC0003E7F04087F3E1C0843686F6F7365207980
:100CD0006F75722072756E6E6572002B35002B3148
:100CE000300007081C1C3E3E777F6B7F777F3E3EBF
:100CF0001C1C000000003E3E637F3E3E00000000E2
:100D00001408080808080C0E0E0E070F06060C0C37
:100D10000C040C0C08080408020402010F080F0F51
:100D2000040F0F0F000F0E0F050F0E0F000F0F0F08
:100D3000030F0C0F000F0F0F090F060F2618FF02ED
:100D400004081020408000000000000000000000A7
:100D500000FF010101010101010101010101010186
:100D60000101011FFF000000000000000102040853
:100D700010204080000000FF000000000000000084
:100D8000000008080808080808F80F000000000024
:100D9000000000000000000000000102040F08082D
:100DA0000808080808080808080808080808080FBC
:100DB000412D436F6E74696E756500596F75206CB7
:100DC0006F73650052494748542D6E6F004C45467D
:100DD000542D7965730051756974207468652067B6
:100DE000616D653F001010000000000000FEB7B705
:100DF000FE0000000000000000000000007FEDED9C
:100E00007F0000000000008040000000C0C0C0C0A3
:100E1000C0C0C0C080000080C0C0C0400000000052
:100E200000000080C0C0C08000000080C0C0C0C002
:100E3000C0C0C080000080C0C0C0C0C0C0C0C00072
:100E400000000000008080C0C0C0C0C0C0C0C0C0E2
:100E50000000808080000000808080000080C0C092
:100E6000C000008080C0C00080C0C0C00000808082
:100E7000C0C00080C0C0C0C0C0C0C0C00000808072
:100E8000C0C0C0C0C0C0C0C0C0C0F0FDFDDDCDCD81
:100E9000EDFD7D3D85E0FCFDFDEDE1E0E0E0F0F8FD
:100EA0007C3C1D0D1DFDFDFDF8C0F8FDFDCDC1C153
:100EB000E1F17D3D9CE0FDFDFDEDEDEDED0D010071
:100EC000000000C0F9FD7D1D0D0DCDFDFD7D3D0532
:100ED00070FDFDFDE1E0F0FC7D1DC1F0FC7D1D0518
:100EE0001DFDFDFD3DC5F1FC7D1D051DFDFDFD3D0F
:100EF0000581E0FDFDFDEDEDEDED0D01C0F9FD7DA0
:100F00001D0D0DCDFDFD7D3D052020202020202044
:100F100020202020202020202020202020202020D1
:100F200020202020202020202020202020202020C1
:100F300020202020202020202020202020202020B1
:100F400020202020202020202020202020202020A1
:100F50002020202020202020202020202020202091
:100F60002020202020202020202020202020202081
:100F70002020202020202020202020202020202071
:100F80002020202020202020200000000000000041
:100F90000000000000000000000000000000000051
:100FA0000000000000000000000000000000000041
:100FB000000000000000000000F010E000F0D00091
:100FC0007080C080700000000000F090D000E05001
:100FD000E000F0204020F000F0D000000000000011
:100FE0000000000000000000000000000000000001
:100FF00000000000000000000000000000000000F1
:1010000000000000000000000000000000000000E0
:1010100000000000000000000080E07078FCFCFE92
:101020007E7EFEFCFC7870E0800000000000000086
:101030000000000000000000000000000000007838
:101040001800784000702870001860180078680058
:1010500078186000000000000000000000000000A0
:1010600000000000000000000080E07078FCFCFE42
:101070007E7EFEFCFC7870E0800000000000000036
:101080000000000000000000000000000000000060
:10109000000000000000000000071F3878FFFFF884
:1010A000F0F0F8FFFF78381F070000000000000094
:1010B00000000000000000000000000000103800E8
:1010C00000003C340038143800283434000C300C54
:1010D00000000038100000000000000000000000C8
:1010E000000000000000000000071F3878FFFFF834
:1010F000F0F0F8FFFF78381F070000000000000044
:1011000000000000000000000000000000000000DF
:1011100000000000000000000000000000000001CE
:1011200001010100000000000000000000000000BC
:10113000000000000000000000000000000000149B
:101140001A1A001E121E001E101E001E021C001E77
:10115000120C000000000000000000000000000071
:10116000000000000000000000000000000000017E
:10117000010101000000000000000000000000006C
:101180000000000000000000000808080808080827
:1011900008080808080808080808080808080808CF
:1011A00008080808080808080808080808080808BF
:1011B00008080808080808080808080808080808AF
:1011C000080808080808080808080808080808089F
:1011D000080808080808080808080808080808088F
:1011E000080808080808080808080808080808087F
:1011F000080808080808080808080808080808086F
:10120000080808080808080808080B00020202007D
:10121000000904000001020200000524001001057D
:1012200024010101042402060524060001070581AA
:101230000310004009040100020A00000007050233
:101240000240000007058302400000040309041265
:10125000010002EF02014041233680000101020338
:101260000141726475696E6F204C4C430041726499
:1012700075696E6F204C656F6E6172646F009D16AC
:1012800011241FBECFEFDAE0DEBFCDBF12E0A0E039
:10129000B1E0E6E6F4E502C005900D92A633B10791
:1012A000D9F726E0A6E3B2E001C01D92A83FB2073D
:1012B000E1F719E0C0E4D9E004C02197FE010E94E3
:1012C0002B2ACF33D107C9F70E94C9160C94312AB3
:1012D0000C940000E8E9F2E0A0E0B8E000800EBC69
:1012E0008111012C1197A0FDFDCF0192B9F70DB42A
:1012F0000895480F592F511D1416150684F580388E
:1013000091056CF597FF02C090E080E041385105EF
:1013100014F040E850E0481BFB01E770FF2721E094
:1013200001C0220FEA95EAF777FF02C0695F7F4F9D
:10133000FB0133E0F595E7953A95E1F7F695FE2F39
:10134000EE27F795E795E80FF91FE856FD4F415056
:1013500030F08191DF011197822B8C93F8CF0895A3
:10136000FC0180919002882311F13FB7F89482E04C
:101370008093E9002091F200822F90E01816190660
:1013800014F481E090E0882339F0289844E64093F3
:101390008F024091F1004083222339F02091F20026
:1013A000211103C02BE62093E8003FBF08958FEF83
:1013B0009FEF08952FB7F89483E08093E900909110
:1013C000E800892F807295FF04C09091F20080E4BC
:1013D000891B2FBF08958091870281110DC082E083
:1013E0008093830284E0809384021092860210929C
:1013F000850281E08093870283E892E00895CF938D
:10140000DF931F92CDB7DEB76983DC01ED91FC91CC
:101410000280F381E02D41E050E0BE016F5F7F4F1D
:1014200009950F90DF91CF91089583E08093E900B3
:101430008091F200882319F08AE38093E8000895F0
:101440000E94DA0990E00895CF93DF931F92CDB701
:10145000DEB7FC018485958597FD08C02FEF3FEF2F
:10146000358724870F90DF91CF910895CE010196A3
:101470000E94B009019719F4898190E0F3CF8FEFB2
:101480009FEFF0CF0F931F93CF93DF931F92CDB7B2
:10149000DEB78C01FC018485958597FF0BC0CE01DA
:1014A00001960E94B009019771F4898190E0F801DA
:1014B00095878487F801848595850F90DF91CF917A
:1014C0001F910F9108958FEF9FEFF1CFFC0184855D
:1014D000958597FD0BC09FB7F89482E08093E90053
:1014E0008091F2009FBF90E0019608959FB7F89415
:1014F00082E08093E9008091F2009FBF90E0089520
:1015000040917D0250917E0220917B0230917C02BD
:1015100042175307B4F49091E8009570E1F390916D
:10152000E80092FD19C08093F10080917D029091B6
:101530007E0201968F739927892B19F48EEF809381
:10154000E80080917D0290917E02019690937E0248
:1015500080937D0281E0089580E00895DF92EF920C
:10156000FF920F931F93CF93DF93D82E8A01EB0145
:101570007B01E40EF51ECE15DF0559F0D7FE12C033
:10158000FE0184910E94800A21968111F4CF0FEF11
:101590001FEFC801DF91CF911F910F91FF90EF9046
:1015A000DF9008958881EECF0F931F93CF93DF9341
:1015B0001F92CDB7DEB782E0898342E450E069E054
:1015C00072E180E80E94AE0A0E94EB09DC011296EB
:1015D0000D911C910115110589F0D801ED91FC9137
:1015E0000280F381E02DBE016F5F7F4FC801099536
:1015F00097FD04C0F80100851185ECCF89810F901B
:10160000DF91CF911F910F910895615030F020919B
:10161000F100FC0120830196F8CF289884E680939E
:101620008F020895AF92BF92CF92DF92EF92FF9216
:101630000F931F93CF93DF936C017B018B01040FFA
:10164000151FEB015E01AE18BF08C017D10759F096
:101650006991D601ED91FC910190F081E02DC601D8
:101660000995892B79F7C501DF91CF911F910F91D2
:10167000FF90EF90DF90CF90BF90AF9008953FB76D
:10168000F89480913A0290913B02A0913C02B09173
:101690003D0226B5A89B05C02F3F19F00196A11D5C
:1016A000B11D3FBFBA2FA92F982F8827BC01CD01AC
:1016B000620F711D811D911D42E0660F771F881F0B
:1016C000991F4A95D1F708958F929F92AF92BF923A
:1016D000CF92DF92EF92FF926B017C010E943F0B51
:1016E0004B015C01C114D104E104F104B9F00E9482
:1016F0003F0B681979098A099B09683E7340810587
:10170000910580F321E0C21AD108E108F10888EEC2
:10171000880E83E0981EA11CB11CE4CFFF90EF90CF
:10172000DF90CF90BF90AF909F908F9008958F9251
:101730009F92AF92BF92CF92DF92EF92FF920F9360
:101740001F93CF93DF936C017B018A018091360157
:10175000882309F45CC080919002882309F457C063
:101760008091820280FF05C08091E00082608093BA
:10177000E000E801B12C8AEFA82E93E0892E2AE33D
:10178000922E209711F4BB20D9F10E94DA09811121
:101790000AC0AA94AA20D9F161E070E080E090E04C
:1017A0000E94640BEECF8C171D0611F00CF08C2FED
:1017B0009FB7F8948092E9002091E80025FD02C0CF
:1017C0009FBFDFCF282F30E0C21BD30BF701815022
:1017D00020F041914093F100FACFE20EF31EBB20BE
:1017E00021F09092E800B12CEBCF8091E80085FDCC
:1017F000E7CF9092E800BB24B394209709F3F3CF8E
:101800005D9884E680938102101611063CF081E019
:1018100090E0F6019383828310E000E0C801DF913D
:10182000CF911F910F91FF90EF90DF90CF90BF90DD
:10183000AF909F908F9008954F925F926F927F929A
:101840008F929F92AF92BF92CF92DF92EF92FF92D0
:101850000F931F93CF93DF934C015901FC2DC02FA1
:10186000D0E0CE01880D991D181619060CF06CC039
:1018700020E8821691040CF067C09B012E0D311DEB
:10188000121613060CF060C0603471050CF05CC0D9
:101890004115510509F458C0E62FE770FE2EDB0113
:1018A00077FD179633E0B595A7953A95E1F73A2F6E
:1018B00077FF04C0FF2011F03FEF3A0F662777272C
:1018C0006819790997FC02C070E060E080389105E2
:1018D0000CF44BC090E89819961BA32F032E000C14
:1018E000BB0B1A2F10953F3F0CF010E021E08E2D1E
:1018F000877009F420E0E694E694E694E20EAE0DDB
:10190000B11D19971CF028E0E22EE31AE11A310FFD
:1019100020E83203D0011124A80DB91DA60FB71F6E
:10192000019F600D711D1124460F571F0F2D0F2CA5
:10193000000C110BF33009F41CC1C8F4F13009F4A8
:10194000D0C0F23009F47CC0DF91CF911F910F918C
:10195000FF90EF90DF90CF90BF90AF909F908F90CF
:101960007F906F905F904F900895902FB5CFFA3F82
:10197000B1F1232F2E0DFB3F39F7321729F3BD01AB
:1019800068567D4FD12CC12CC91608F0A4C0FA01AD
:10199000EC0DFD1DE491F0E04F01002E02C0880C1B
:1019A000991C0A94E2F737FD06C0FB018081E82C00
:1019B000E0948E218083FF2061F0373054F45B0186
:1019C000F0E8AF0EB11CE92CE094F50180818E2186
:1019D0008083FFEFCF1ADF0A6F5F7F4FD5CF232FB2
:1019E0002E0D321709F4B0CFBD0168567D4FD12CB2
:1019F000C12CC91608F069C0FA01EC0DFD1DE49177
:101A0000F0E04F01002E02C0880C991C0A94E2F706
:101A100037FD04C0FB01808188298083FF2051F0BD
:101A2000373044F45B01F0E8AF0EB11CF501808162
:101A300089298083FFEFCF1ADF0A6F5F7F4FD9CFED
:101A40006FEF70E00F2C02C0660F771F0A94E2F769
:101A500060957095772E232F2E0D321709F474CFD1
:101A6000FD01E856FD4F6F01B12CA12CA91638F5E8
:101A7000FA01EA0DFB1DE491F0E02F01002E02C0F7
:101A8000440C551C0A94E2F737FD05C0F60180812D
:101A9000862384298083FF2059F037304CF4460197
:101AA000F0E88F0E911CF4018081872185298083C5
:101AB000FFEFAF1ABF0A8FEFC81AD80AD7CF3F5F20
:101AC0004C0F5D1FA058BF4FC8CF3F5F4C0F5D1F2D
:101AD000A058BF4F86CF3F5F4C0F5D1FA058BF4F30
:101AE0004CCF6A0D7B1D232F2E0D321709F42CCFFE
:101AF000FD01E856FD4F6F01B12CA12CA91688F508
:101B0000FB01EA0DFB1D8490912C002E02C0880C75
:101B1000991C0A94E2F780949094FA01EA0DFB1D57
:101B20006490712C002E02C0660C771C0A94E2F7B8
:101B300037FD05C0F6018081882186298083FF203A
:101B400049F037303CF4F601E058FF4F808189219D
:101B500087298083FFEFAF1ABF0A8FEFC81AD80A10
:101B6000CDCF3F5F4C0F5D1F6C0F7D1FA058BF4F47
:101B7000BCCFC92ED12CFA01E60FF71FA856BD4FD6
:101B800000E810E00C191D09CC19DD09BE01660F33
:101B9000771F41E050E06A010F2C01C0CC0C0A9481
:101BA000EAF7592F2E2D792ECF93DF93ED01EF9683
:101BB000EF9622968590A590FF2059F08C9C4001CD
:101BC000AC9C500137302CF4E880B094EB20E9282D
:101BD000E99233233AF0EC90A094EA20E828ED92C1
:101BE0000C94F30D11965A9529F72A9551F0572D1B
:101BF00033951124E60FF11DA00FB11DC00FD11DAB
:101C0000D9CFDF91CF9111249FCECF92EF920F9336
:101C1000FA0104913196E4904E5F5F4F22E0C22EAC
:101C200030E020E00E941C0C0F91EF90CF900895BF
:101C3000CF92EF920F934115510569F1FA0104918A
:101C40003196E4904E5F5F4F2223F9F0A1E0B0E0BF
:101C50003E2D377011F4B0E0A0E0EE2DE695E6954C
:101C6000E695EA0FFB2FF11D0E9FD0010F9FB00DDF
:101C7000112430E0220F331FA29FF001A39FF00D2B
:101C8000B29FF00D11244E0F5F1F23E0C22E30E0F3
:101C900020E00E941C0C0F91EF90CF9008952D9A98
:101CA0000895BC0190E080E00C94640B8FB18095A6
:101CB000807F669B88601C9B8460089510926602FA
:101CC0003E983F9808953E9A3F9A81E0809366023D
:101CD000089590917402982329F4909175029823A5
:101CE00081E009F480E0089580E00C946A0980386E
:101CF0009105B8F460347105A0F420E191E061FD34
:101D000094E060FD990F62FD9295687F269FD00157
:101D10001124A80FA856BD4F8C9140FF03C0892BFA
:101D20008C93089590958923FBCF2F923F924F92E9
:101D30005F926F927F928F929F92AF92BF92CF925B
:101D4000DF92EF92FF920F931F93CF93DF93EC01FB
:101D50008B017A016901C61AD70AD7FE03C0D19454
:101D6000C194D10847018C1A9D0A97FE03C0919433
:101D7000819491088C149D0454F49E2D8F2D79012B
:101D8000292F382F9C2F8D2FE801092F182FEC16A3
:101D9000FD0654F4902F812F8901292F382F9C2F75
:101DA0008D2FE701E92EF82E17012C1A3D0A290183
:101DB000401A510A57FE03C0519441945108310111
:101DC00037FE03C08FEF681A780A759467948FEF17
:101DD000021713070CF481E0A82E880FBB08EC163D
:101DE000FD06A4F041E0BE01C8018C149D0414F06E
:101DF000B801CE010E94770E6418750877FE04C002
:101E00000A0D1B1D620C731C2196E9CFDF91CF9147
:101E10001F910F91FF90EF90DF90CF90BF90AF9008
:101E20009F908F907F906F905F904F903F902F90FA
:101E300008952F923F924F925F926F927F928F926E
:101E40009F92AF92BF92CF92DF92EF92FF920F9349
:101E50001F93CF93DF937C014B01C42FD0E081E02F
:101E600090E06C01CC1ADD0AAA24BB24AC1ABD0A8E
:101E7000AA0CBB1C66246394712C10E000E0822F36
:101E80008470582E822F8270482E822F8870382EB0
:101E90002170222ED7FC06C0219782E0A80EB11C2B
:101EA000CA0CDB1C0F5F1F4F82E0680E711CC60C52
:101EB000D71C552091F041E0BE01680D791DC70186
:101EC000800F911F0E94770E41E0B401600F711FD7
:101ED000CE018E0D9F1D0E94770E442091F041E0AF
:101EE000B4016C1B7D0BC701800F911F0E94770E00
:101EF00041E0B401601B710BCE018E0D9F1D0E944D
:101F0000770E332091F041E0B401600F711FC701DB
:101F10008C1B9D0B0E94770E41E0BE01680D791D60
:101F2000C701801B910B0E94770E222091F041E0A7
:101F3000B401601B710BC7018C1B9D0B0E94770EB7
:101F400041E0B4016C1B7D0BC701801B910B0E940B
:101F5000770E0C171D070CF49DCFDF91CF911F91C9
:101F60000F91FF90EF90DF90CF90BF90AF909F9038
:101F70008F907F906F905F904F903F902F9008953B
:101F80008F929F92AF92BF92CF92DF92EF92FF9289
:101F90000F931F93CF93DF936D3089F0C09072023F
:101FA000D09073026A30D1F41092710210927002D4
:101FB00088E0C80ED11CD0927302C092720281E0F8
:101FC00090E0DF91CF911F910F91FF90EF90DF9004
:101FD000CF90BF90AF909F908F9008950091700226
:101FE00010917102E5E06E9FE0011124C851D94FB4
:101FF0004801F12CF5E0E12CFF1629F0CE01019605
:10200000FE01E490EC01B12CA12C4E2D4170B601E3
:102010006A0D7B1DC4010E94770EE694FFEFAF1A94
:10202000BF0A88E0A816B10481F7F394EFEF8E1A87
:102030009E0AF6E0FF12DECF0A5F1F4F1093710277
:1020400000937002BCCF0F931F93CF93DF938C014B
:10205000D0E0C0E0F801EC0FFD1F6491662341F071
:1020600088EE96E00E94C00F892B11F02196F2CFE6
:10207000CE01DF91CF911F910F910895DF92EF92E2
:10208000FF920F931F93CF93DF937C01D22E8B018E
:10209000040F111DEB0177FF02C0D0E0C0E0C801C2
:1020A0000134110514F080E490E0C817D9073CF41E
:1020B0004D2DBE01C7010E94770E2196F0CFDF9112
:1020C000CF911F910F91FF90EF90DF9008955F9255
:1020D0006F927F928F929F92AF92BF92CF92DF9238
:1020E000EF92FF920F931F93CF93DF93EC017B014D
:1020F000142F722E602E660C542E5618802E912CA2
:102100005401A80EB91E452DC5010E947909670129
:10211000C70CD11CB60161507109452DC5010E9443
:1021200079097618E80CF91C21E0472DB701CE019A
:102130000E943E10C10FD11D21E0472DB701CE01F5
:1021400001970E943E1021E0402FB701C5010E9477
:10215000190FC819D909219722E0402FB701CE01E4
:102160000E94190F7601E818F90881E0E81AF108D1
:1021700024E0402FB701CE010E94190F28E0402F24
:10218000B701C501DF91CF911F910F91FF90EF90A3
:10219000DF90CF90BF90AF909F908F907F906F9087
:1021A0005F900C94190F80919102813029F48091F5
:1021B00038028F5F809338028091380281508230DC
:1021C00060F483E08093760280E48093900086E55B
:1021D00094E0909399008093980080913802843025
:1021E00060F083E08093760280E4809390008AE937
:1021F00092E0909399008093980080913802863005
:1022000021F4109291021092380280919102823052
:1022100029F4809137028F5F8093370280913702D3
:102220008150873060F483E08093760280E480936D
:1022300090008FE19EE490939900809398008091A4
:102240003702893060F083E08093760280E48093E7
:1022500090008FE097E2909399008093980080918E
:1022600037028D3021F41092910210923702809142
:102270009102833029F4809136028F5F8093360279
:10228000809136028150843060F483E0809376023E
:1022900080E48093900084E09DE090939900809387
:1022A0009800809136028550853060F483E08093F9
:1022B000760280E48093900082E896E09093990003
:1022C0008093980080913602803160F083E08093A3
:1022D000760280E48093900086E594E090939900E4
:1022E0008093980080913602843121F410929102FB
:1022F0001092360208951092920210925202109299
:10230000970210925B02109254021092500281E0E8
:102310008093190110925102109244028EE190E0D4
:1023200090931D0180931C0110924F0210924E0257
:1023300084E190E090931B0180931A0110921801A0
:10234000109217011092770282E08093230110927D
:10235000960210929502E4E2F1E08FE090E0918322
:10236000808389E290E093838283ECE5F2E011823E
:10237000108226E330E0338322838EE184838AE077
:102380008583E5E5F2E041E450E051834083338307
:10239000228394E1948385831092650210926402F3
:1023A0001092530286EF9FEF90930A0180930901E8
:1023B00090930801809307011092630210926202C9
:1023C00010924B02109278028CE99FEF90933801A3
:1023D000809337010895089590E080E008954F922A
:1023E0005F926F927F928F929F92AF92BF92CF92A5
:1023F000DF92EF92FF92CF93DF9300D000D000D016
:10240000CDB7DEB79E838D837B01809197028823B1
:1024100079F1809195029091960225E330E0281B96
:10242000390B4D815E8165E370E0CA010E94950E13
:1024300084E190E090939402809393021092920230
:1024400082E08093910226960FB6F894DEBF0FBE0D
:10245000CDBFDF91CF91FF90EF90DF90CF90BF90F5
:10246000AF909F908F907F906F905F904F90089566
:10247000483251050CF072C0BA0164517109072E3F
:10248000000C880B990B0E948E2826E53EE049EC53
:102490005FE30E94592920E030E040EA51E40E94C5
:1024A000E4272B013C010E94DF274B015C01B701AF
:1024B000FF0C880B990B0E948E286B017C01C301D5
:1024C000B2010E94C6292B013C01A7019601C5015A
:1024D000B4010E9459299B01AC0160E070E084E5E1
:1024E00092E40E9472270E94562869837A838B8324
:1024F0009C832D813E81B901330F880B990B0E947B
:102500008E284B015C01A3019201C701B6010E9414
:1025100059299B01AC01C501B4010E9473270E9497
:10252000562829813A81AB0165E370E08D819E8157
:1025300026960FB6F894DEBF0FBECDBFDF91CF91C8
:10254000FF90EF90DF90CF90BF90AF909F908F90D3
:102550007F906F905F904F900C94950E8D819E812F
:10256000E80EF91E25E330E0A70165E370E00E9464
:10257000950E80919502909196028230910574F0AB
:10258000F0923801E092370186E390E090933A01AF
:102590008093390181E08093920255CF019709F031
:1025A00052CFF8CFFC0101900020E9F73197AF013D
:1025B000481B590BBC0188EE96E00C94120B8F92CD
:1025C0009F92AF92BF920F931F93CF93DF93CDB79C
:1025D000DEB7A1970FB6F894DEBF0FBECDBF19A22C
:1025E000423008F44AE08E010F5D1F4F842E912C7B
:1025F000B12CA12CA50194010E944127E62FB9011D
:10260000CA01EA30F4F4E05DD801EE938D01232B8A
:10261000242B252B79F790E080E0109719F0CD015D
:102620000E94D212A1960FB6F894DEBF0FBECDBFA6
:10263000DF91CF911F910F91BF90AF909F908F909E
:102640000895E95CE1CFCF92DF92EF92FF92CF93B2
:10265000DF936C01990FEE08FF08F7FE19C06DE2D9
:1026600088EE96E00E94C00FEC0166277727CB0129
:102670006C197D098E099F094AE00E94DF128C0FB8
:102680009D1FDF91CF91FF90EF90DF90CF90089545
:102690004AE0C701B601DF91CF91FF90EF90DF9044
:1026A000CF900C94DF128F929F92AF92BF92CF92F5
:1026B000DF92EF92FF926B017C01C216D306E40613
:1026C000F50684F449015A018C189D08AE08BF082C
:1026D0000E94A126A50194010E940F27C60ED71EB5
:1026E000E81EF91EC701B601FF90EF90DF90CF9072
:1026F000BF90AF909F908F9008950C94F9261F92F1
:102700000F920FB60F9211248F939F938091E10047
:102710009091E100937F9093E10083FF0FC01092AE
:10272000E90091E09093EB001092EC0092E390931B
:10273000ED001092900298E09093F00082FF22C08A
:1027400093E09093E9009091F200992319F09AE3B5
:102750009093E80090918102992341F09091810239
:10276000915090938102911101C05D9A90918F02D6
:10277000992341F090918F02915090938F02911183
:1027800001C0289A84FF18C08091E2008E7E81608B
:102790008093E2008091E1008F7E8093E100809140
:1027A00082028E7E8061809382029F918F910F9032
:1027B0000FBE0F901F90189580FFF7CF8091E20019
:1027C0008E7E80618093E2008091E1008E7E809316
:1027D000E100809182028E7E8160E5CF1F920F9290
:1027E0000FB60F921124CF92DF92EF92FF920F93C8
:1027F0001F932F933F934F935F936F937F938F9389
:102800009F93AF93BF93EF93FF93CF93DF93CDB796
:10281000DEB76C97DEBFCDBF1092E9008091E80073
:1028200083FF25C068E0CE0145960E94050B82EF2C
:102830008093E8008D8987FF39C09091E80090FF70
:10284000FCCF982F907609F034C19E894F89588D1E
:102850002F89F88C911131C0803861F58091800208
:102860008093F1001092F1008EEF8093E8006C9657
:102870000FB6F894DEBF0FBECDBFDF91CF91FF91B1
:10288000EF91BF91AF919F918F917F916F915F91E8
:102890004F913F912F911F910F91FF90EF90DF90FB
:1028A000CF900F900FBE0F901F9018959EEF9093B2
:1028B000E800C7CF1092F100D5CF913059F48111C3
:1028C000D3CF4130510581F6809180028D7F809376
:1028D0008002CACF933049F48111C6CF41305105EF
:1028E00019F6809180028260F2CF953041F4809198
:1028F000E80080FFFCCF20682093E300B5CF96303E
:1029000009F0A9C00B8D1C8D22E01092E9001092F5
:102910007E0210927D02F2122EC010927C02109262
:102920007B020E94D40A1F8299E09983FA8291E087
:102930009E8390EA98879AEF998720917D02309143
:102940007E02275F3F4F3C832B838D831092E900EB
:1029500010927E0210927D0210937C0200937B0203
:1029600049E050E0BE016F5F7F4F80E00E94AE0AF9
:102970000E94D40A79CF10937C0200937B020E94BC
:10298000EB09DC0112960D911C910115110509F45A
:1029900051C1D801ED91FC910480F581E02DBE017B
:1029A0006B5E7F4FC8010995009709F03EC1F801A1
:1029B00000851185EACFF3E0FF120EC08F898823CE
:1029C00009F440C0823061F440E860E18DE692E1B4
:1029D0000E946A16811148CF81E28093EB0047CFB5
:1029E000813029F440E86BE081E692E1F1CF833059
:1029F00099F70E94EB09DC011296ED90FC908E0194
:102A00000F5F1F4F6801E114F10479F0D701ED91D8
:102A1000FC910680F781E02DB801C7010995080FE8
:102A2000111DF701E084F184EECFD8011C92F6016C
:102A300001900020E9F73197BF016C197D0940E052
:102A4000C601C6CF6BE472E1FB01449150E080E81F
:102A50000E94AE0A09CF973009F4BECF983021F416
:102A600081E08093F10000CF993009F0FDCE8370B2
:102A700009F0B2CFEEEAF1E081E031E096E3219196
:102A8000222371F08093E9003093EB00DF0111976E
:102A90002C912093EC009093ED008F5F873079F7B5
:102AA0008EE78093EA001092EA008F89809390026B
:102AB000DBCE8B8D9C8D1092E90010927E021092DD
:102AC0007D0290937C0280937B02898D811192C05C
:102AD0008E899D89913A49F4813209F07DCF47E092
:102AE00050E06FE271E080E0B3CF913209F074CF33
:102AF000833269F48F89988DB0E0A0E080932B0138
:102B000090932C01A0932D01B0932E01ADCE803275
:102B100069F48091E80082FFFCCF67E08FE291E0EA
:102B20000E94050B8BEF8093E8009ECE823209F065
:102B30009BCE8F8980933601EEEFFFE785919491CC
:102B40008B3F9C4D51F1E0E0F8E080912F01909196
:102B50003001A0913101B0913201803B9440A10538
:102B6000B105F1F48091360180FD1AC0EE3F8AE094
:102B7000F80789F587E797E7918380838091600064
:102B800080937F0288E19BE00FB6F894A89580932C
:102B900060000FBE9093600067CEEEEFFAE0D5CFF5
:102BA000808191818737974709F05ECEA895809103
:102BB000600088618093600080917F028093600054
:102BC000EE3F2AE0F20789F08091FE0A9091FF0A19
:102BD0009183808349CE808191818737980751F214
:102BE0009093FF0A8093FE0AC5CF1092FF0A1092BD
:102BF000FE0A3ACE0E94EB09DC0112960D911C915F
:102C00000115110509F4E8CED801ED91FC91019070
:102C1000F081E02DBE016B5E7F4FC80109958111E7
:102C200023CEF80100851185EBCF181619060CF498
:102C30001BCED2CEF1E0FF12BECE6FE472E104CF24
:102C40001F920F920FB60F9211242F933F938F93E1
:102C50009F93AF93BF9380913E0290913F02A091CA
:102C60004002B09141023091390223E0230F2D3709
:102C700058F50196A11DB11D2093390280933E02A3
:102C800090933F02A0934002B093410280913A0298
:102C900090913B02A0913C02B0913D020196A11D92
:102CA000B11D80933A0290933B02A0933C02B093F3
:102CB0003D02BF91AF919F918F913F912F910F90C6
:102CC0000FBE0F901F90189526E8230F0296A11DA6
:102CD000B11DD2CFEF92FF920F931F93CF93DF934B
:102CE000F82E192FE62E042F81E0860F880F0E9400
:102CF000800A83E00E94800ACF2DD12FEC0EFD2E9A
:102D0000F11CCE15DF05B9F007FF13C0FE01849159
:102D10000E94800A182F80E00E94800A8123219659
:102D20008111EFCFDF91CF911F910F91FF90EF9025
:102D300008958881EDCF81E0F5CFE8E9F6E01382D0
:102D4000128288EE93E0A0E0B0E084839583A683AE
:102D5000B78388EB91E0918380838FEF9FEF958716
:102D60008487ECEEF6E081E0808311821282138288
:102D70001482158216821782108611861286138697
:102D8000E8EEF6E0138212828AEC91E09183808370
:102D90000895CF93DF93CDB7DEB7CD55D1090FB6E8
:102DA000F894DEBF0FBECDBF789484B5826084BD39
:102DB00084B5816084BD85B5826085BD85B581603F
:102DC00085BD80916E00816080936E0010928100BD
:102DD0008091810082608093810080918100816078
:102DE0008093810080918000816080938000809139
:102DF0009100826080939100809191008160809326
:102E00009100809190008160809390008091C1003A
:102E100084608093C1008091C10082608093C10072
:102E20008091C10081608093C1008091C300816066
:102E30008093C3008091C00082608093C000809125
:102E4000C20081608093C20080917A008460809388
:102E50007A0080917A00826080937A0080917A0073
:102E6000816080937A0080917A00806880937A00F4
:102E70001092900210928002109282028091D700EC
:102E800081608093D70080EA8093D80089B5806103
:102E900089BD89B5826089BD09B400FEFDCF61E0BE
:102EA00070E080E090E00E94640B8091D8008F7CFD
:102EB00080618093D8008091E000807F8093E00063
:102EC0008091E1008E7E8093E1008DE08093E200AE
:102ED000559A209A81EC80937C0085B1806F85B9EA
:102EE00084B1877E84B984B1876E84B95E9A5F9815
:102EF0008AB1806D8AB9769A6E9881B3806F81BBF2
:102F0000899880B38D7080BB80E58CBD81E08DBDDC
:102F100085E090E00E94510E5F9A85E090E00E946B
:102F2000510E5E985C98E8E9FCE085EA9CE024910B
:102F30002EBD00000DB407FEFDCF31968E179F0702
:102F4000B1F75C9A81E880936400809165008160AC
:102F5000809365000E94740E0E94560E87FF15C074
:102F60005C9885EA8EBD00000DB407FEFDCF5C9A2B
:102F70002E982F982D988091640080628093640031
:102F800081E083BF889513BEFCCF0E94560E82FF5E
:102F900048C02D980E94560E84788438E1F40E942F
:102FA0004F0E88EC90E00E94510E2F9882E090E046
:102FB0000E94F9268F3F29F06FEF82E090E00E9497
:102FC000012784EF91E00E94510E2F9A0E94560E25
:102FD00084788438D9F30E94560E84718431E1F4E8
:102FE0000E944F0E88EC90E00E94510E2E9882E0D5
:102FF00090E00E94F926882329F060E082E090E0CA
:103000000E94012784EF91E00E94510E2E9A0E94A7
:10301000560E84718431D9F388EC90E00E94510EF1
:10302000B4CF0E944F0E82E090E00E947D1388236F
:1030300009F493C00E94630E81E090E00E947D132A
:10304000082F0470702E81FF11C001112E9801EF1E
:103050001FEF68E0E62EF12C78E5672E0E94560EF1
:1030600086FF7EC02E9A2F9A0E944F0E82E390E038
:103070000E94510E0E94560E8111F8CF809164007B
:103080008E7F8093640080917A00806480937A00C0
:1030900080917A0086FDFCCF009178001091790034
:1030A0000E943F0BAB01BC01C801B0E0A0E0DC0115
:1030B000992788278C019D01040F151F261F371F94
:1030C000C901B8012091640021602093640061155A
:1030D00071058105910511F00E94F0261092900073
:1030E0008AE08093910090E19093000110925D023C
:1030F00010925C0226E330E030935F0220935E0280
:103100009EE1909360028093610241E450E050930D
:10311000560240935502309358022093570294E18F
:103120009093590280935A028FB7F89440913E02CF
:1031300050913F0260914002709141028FBF809197
:103140004202882309F4CFC01092420280E090E04E
:10315000892B51F30E940000E7CF0E945E0E6CCFD6
:10316000772029F00430110511F42E9A2F9881E070
:103170000E946A09980117FF04C022273327201BE9
:10318000310B27703327C80117FD079653E095953B
:1031900087955A95E1F717FF05C00197A701421BD4
:1031A000530B9A01BC017695762F66277795679524
:1031B00068567D4FB0E0A0E02701421A530A8E3FC7
:1031C0005FEF950709F43FC06A9E50016B9EB00CFB
:1031D000112450E040E0F501E851F44F5F014B014C
:1031E000F0E88F0E911C8F3F980791F0F501E40FE6
:1031F000F51FE4916B01C40ED51EF0E01F01022EF5
:1032000001C0220C0A94EAF7F60134882328248AA4
:103210002115310599F0F501E40FF51FE4916401E2
:10322000C40ED51EF0E01F01042C02C03594279473
:103230000A94E2F7F60134882328248A4F5F5F4F0F
:103240004835510581F6019660587F4F119709F076
:1032500047C00E94740E8FE090E00E94510E0F5FF5
:103260001F4F0931110509F0F9CE772011F02F9A7F
:103270002D9880E991E00E94510E0E944F0E81E04E
:1032800090E00E947D1380FFF1CE8AE090E00E94E2
:103290007D139FEF980F9E3F08F0E8CE22E330E0C9
:1032A000309371022093700228E330E03093730270
:1032B000209372020BE010E0682F88EE96E00E94E7
:1032C000C00FC8010E947D130F5F1F4F0131110510
:1032D00099F70E94740E88EE93E00E94510EC6CEBC
:1032E000A1E0B0E06CCF80914302142F181B812F16
:1032F00090910001191748F48F5F891708F026CFC5
:1033000081E083BF889513BE21CF81E08093420284
:10331000409343028091930290919402019690937E
:1033200094028093930280917602882339F0815031
:1033300080937602811102C01092900080917502F4
:10334000809374020E94560E8093750280E0E8E933
:10335000F2E081118FEF0024819381938193819317
:103360000394D1F7109273021092720210927102BC
:103370001092700280916F028D30A8F490E0880F57
:10338000991FFC01EB56FE4F2081318130936E0274
:1033900020936D0283589E4FFC0180819181909310
:1033A0006C0280936B0280912A01823011F40C949C
:1033B000032440F4882309F1813009F435C10E94C7
:1033C000740EC4CE843011F40C94022610F40C94C4
:1033D000B8258530A1F780919302909194028436AC
:1033E000910510F00C943F264CE35DE067E170E03E
:1033F0008EE290E00E94050EE2CF47E05EE070E0D2
:1034000060E090E080E00E94050E10917A021F5F5C
:1034100010937A021031A0F045EE5DE061E270E0B9
:1034200080E690E00E94050E45EE5DE061E270E00E
:1034300080E190E00E94050E1E3111F410927A0294
:1034400080E10E94690E8823A9F08091790283307F
:1034500088F481E08093760280E48093900084E099
:103460009DE09093990080939800809179028F5FFE
:103470008093790280E80E94690E8823A9F08091E8
:103480007902882389F081E08093760280E480933A
:10349000900084E09DE09093990080939800809143
:1034A00079028150809379021091790211119DC0A7
:1034B0008FE280936A0281E28093690281E58093C2
:1034C000680280E20E94690E882381F0123071F454
:1034D00081E08093760280E48093900084E09DE018
:1034E00090939900809398001092670280E40E9464
:1034F000690E882391F080917902823071F481E025
:103500008093760290E49093900024E03DE0309325
:103510009900209398008093670280916702882326
:1035200049F020E04CE15DE06AE270E089E390E080
:103530000E94180E6091690270E04091680250E0AC
:1035400080916A029B0190E00E94950E1091790291
:10355000133061F484E00E94690E81110E945E0EB6
:1035600088E00E94690E81110E94630E80916602BC
:10357000882341F046E15DE061E370E08CE490E097
:103580000E94050E88E00E94690E8823A1F01111A7
:1035900012C081E08093760290E49093900027EE31
:1035A00033E0309399002093980010927802809332
:1035B0002A011092910288E00E94690E882309F482
:1035C000FECE80917902813009F0F9CE80937602A7
:1035D00080E48093900087EE93E09093990080932D
:1035E000980082E080932A01EACE113041F485E30D
:1035F00080936A0288E2809369028AE460CF123085
:1036000041F488E380936A028FE28093690287E441
:1036100056CF133009F055CF85E380936A0286E3D5
:103620008093690289E44BCF809126019091270114
:10363000813491053CF480912401909125018138D9
:1036400091057CF083E08093760280E48093900083
:103650008FE19EE4909399008093980084E080939A
:103660002A01809177028111F3C180912301823078
:1036700019F481E080932201209193023091940209
:10368000C90160E570E00E94172A892B49F48091F6
:1036900020019091210101979093210180932001B5
:1036A000C90166E970E00E94172A892B49F48091CC
:1036B0001E0190911F01019790931F0180931E019D
:1036C00080912001909121018C3E9F4F34F480E83D
:1036D00090E0909321018093200180911E019091B0
:1036E0001F018C3E9F4F34F480E890E090931F01BF
:1036F00080931E0140E05DE064E170E08091200174
:10370000909121010E94050E40E05DE069E170E0CA
:1037100080911E0190911F010E94050E809164020C
:10372000909165020E94231321E043E16BE070E079
:103730008EE390E00E943E10F12CE12C662463940D
:10374000712C09E010E08EEE482E55245A9498EF23
:10375000C92EDD24DA943FEFE31AF30A42E0640E47
:10376000711CC60CD71C302E330C339421E0432D32
:10377000F4E1AF2EB12CA01AB10AB501C701CE9663
:103780000E943E10A4E18A2E912C8E189F0821E001
:10379000462DB401C801CE960E943E1021E0432D73
:1037A000B5018EE390E08E199F090E943E1021E042
:1037B000462DB4018EE390E0801B910B0E943E10D9
:1037C000E016F1060CF44EC120E042EE5CE070E041
:1037D00060E086E690E00E94180E80E790E090930B
:1037E00071028093700210927302109272028091A3
:1037F0006202909163020E94231386E0E4E2F1E00A
:10380000DE01A15BBF4F01900D928A95E1F7809197
:103810002401909125010091260110912701E0904B
:1038200028017091290126E0ECE5F2E0DE01A75BBA
:10383000BF4F01900D922A95E1F720915C023091E3
:103840005D0240916002E80EF92EF11C50E02E1549
:103850003F050CF011C1FA01E20FF31F8E179F070D
:103860000CF00AC1E0915E02F0915F02D801A70F4F
:10387000B11DEA17FB070CF0FFC060916102E60F73
:10388000F11D0E171F070CF0F7C0281739070CF0B1
:10389000F3C061E060935B0266E0E4E2F1E0DE0128
:1038A000AD5BBF4F01900D926A95E1F766E0E5E5EB
:1038B000F2E0DE01DD9601900D926A95E1F7E0916C
:1038C0005502F0915602B0905902EE15FF05DCF456
:1038D000DF01AB0DB11D8A179B07ACF4E0905702D6
:1038E000F0905802D801A70FB11DEA16FB065CF450
:1038F00070915A02E70EF11C0E151F0524F4E8170B
:10390000F9070CF4BCC010925402F0907702709149
:103910002301A0911C01B0911D01F110B4C07230BF
:1039200009F05AC010915302112361F08C01095F14
:103930001F4F0E171F0734F001E410E0109327010A
:103940000093260100919502109196020A0F1B1F09
:10395000E0909202EE2079F00817190764F0E090E9
:103960005202E11008C00196909325018093240132
:1039700081E08093510280912401909125016F0193
:10398000CB0CD11C6DE0C61AD1088C159D0564F4D2
:10399000E0905202EE2041F0019690932501809331
:1039A000240181E0809351028091240190912501AE
:1039B000081719078CF48091540281110DC0809171
:1039C0005202811109C08091260190912701019630
:1039D00090932701809326018091240190912501E5
:1039E000420F531F4D5051098417950721F4409100
:1039F0002201442361F0EB0DF11D3D978E179F07C7
:103A000009F097C040912201442309F492C04091EB
:103A10005202442309F48DC041E040935002E3E098
:103A2000FE128AC04091520241118DC001979093BD
:103A3000250180932401733009F085C08091240111
:103A400090912501019790932501809324017BC0DB
:103A5000823009F011CE8091230181110DCE109298
:103A600022010ACED7FC77CE0150110922E0420E86
:103A7000511CC40CD51C6FCE10925B020DCF71E0AF
:103A80007093540242CF02E0F012A6CF7111A4CF7E
:103A900010915302112361F08C01095F1F4F02172F
:103AA000130734F001E410E010932701009326017E
:103AB000C0909502D090960200911A0110911B01BE
:103AC0000C0D1D1DE0909202EE2079F008171907E9
:103AD00064F0E0905202E11008C001969093250135
:103AE0008093240181E08093510280912401909180
:103AF00025016A01C20ED31E6DE0C61AD1088C15CD
:103B00009D0564F4E0905202EE2041F001969093FE
:103B100025018093240181E080935102809124014A
:103B200090912501081719070CF056CF80915B0280
:103B300044CF1092500273CF733029F48091520217
:103B4000882309F47BCF2E3731050CF022C28091F7
:103B50005002882309F40BC280919702811107C299
:103B600080912201882309F402C284E080937702C5
:103B7000109251022F3F320709F4FCC12150310944
:103B800030935D0220935C02B195A195B1098091BB
:103B90005C0290915D02A817B90734F080E890E0CC
:103BA00090935D0280935C0280915C0290915D0233
:103BB0008038910509F069C08091670281112EC09B
:103BC0000E94A12629E130E040E050E00E940F274A
:103BD000615F7F4F8F4F9F4F70931D0160931C015A
:103BE00060911A0170911B01605F7F4F072E000CDE
:103BF000880B990B2AE530E040E050E00E94531317
:103C000070934F0260934E020E94A12624E030E0A0
:103C100040E050E00E940F2760934D0280916702C0
:103C2000882371F10E94A1262FE030E040E050E0AF
:103C30000E940F276B5F7F4F8F4F9F4F70931D0127
:103C400060931C0160911A0170911B01605F7F4FAE
:103C5000072E000C880B990B2AE530E040E050E07D
:103C60000E94531370934F0260934E020E94A1264C
:103C700023E030E040E050E00E940F2760934D02C7
:103C800081E0809377028093190120914E02309158
:103C90004F0280917702813081F480915C02909193
:103CA0005D0240911C0140936002281739072CF4F3
:103CB000019790935D0280935C0280915C029091E9
:103CC0005D022817390719F422E02093770240910A
:103CD000220141110BC020919702211107C02091B0
:103CE0005002222319F023E02093770220917702DB
:103CF000233079F420911C0130911D0131952195DB
:103D00003109281739072CF4019790935D028093AD
:103D10005C0280915C0290915D02892B21F41092EB
:103D200077021092520280915502909156028E377E
:103D300091050CF047C120915002222309F42FC1B4
:103D40002091970221112BC1411129C124E0209318
:103D50002301109251028F3F980709F423C1019764
:103D6000909356028093550280911A0190911B0105
:103D700091958195910920915502309156028217B3
:103D8000930734F080E890E09093560280935502B8
:103D900080915502909156028038910509F069C0D2
:103DA0008091670281112EC00E94A12629E130E096
:103DB00040E050E00E940F27615F7F4F8F4F9F4F81
:103DC00070931B0160931A0160911C0170911D0199
:103DD000665F7F4F072E000C880B990B2AE530E0B9
:103DE00040E050E00E945313709318016093170154
:103DF0000E94A12624E030E040E050E00E940F271E
:103E000060934D0280916702882371F10E94A12680
:103E10002FE030E040E050E00E940F276B5F7F4FC3
:103E20008F4F9F4F70931B0160931A0160911C018B
:103E300070911D01665F7F4F072E000C880B990B58
:103E40002AE530E040E050E00E94531370931801DF
:103E5000609317010E94A12623E030E040E050E08B
:103E60000E940F2760934D0281E08093230180938D
:103E7000190120911701309118018091230181309F
:103E800081F4809155029091560240911A0140931D
:103E90005902281739072CF4019790935602809302
:103EA000550280915502909156028217930719F49A
:103EB00022E020932301709077024090500234E07A
:103EC00073120DC020919702211109C02091230186
:103ED000223029F4442019F023E02093230120917B
:103EE0002301233079F420911A0130911B0131957F
:103EF00021953109281739072CF401979093560220
:103F000080935502A0905502B0905602A114B104BE
:103F100011F41092230110925202009161026696F0
:103F20000FAF66971091600220905E0230905F02A2
:103F300080905C0290905D0264019401210F311D1C
:103F40006C963FAF2EAF6C976C964EAD5FAD6C9795
:103F5000C416D506ECF521E066964FAD6697B10123
:103F6000C6010E943E105FEFC51AD50AEDCF2F3F64
:103F7000320779F4809164029091650201969093E2
:103F8000650280936402109296021092950210923C
:103F9000920280917702843009F0F6CDEFCD8F3F09
:103FA000980781F410929602109295022091640273
:103FB000309165022F5F3F4F30936502209364027A
:103FC0001092920220912301243009F0CDCEC7CE69
:103FD00000915A0267960FAF679700915902E090DF
:103FE0005702F090580265019501200F311D6A9625
:103FF0003FAF2EAF6A976A964EAD5FAD6A97C41613
:10400000D50664F421E067964FAD6797B701C60106
:104010000E943E105FEFC51AD50AEDCFC090950201
:10402000D09096021C141D049CF440919302509170
:10403000940280912201882309F427C680911C01F3
:1040400090911D01880D991DB60101970E94EF11F5
:104050000E94560E82FF0FC080911901882359F0EB
:10406000772009F49AC062E0761207C0809123019C
:10407000811103C097C01092970286E0E7E3F1E058
:10408000DE01D79601900D928A95E1F78091370174
:10409000909138016090390170903A0130913B0164
:1040A00050903C0126E0ECE5F2E0DE01D196019073
:1040B0000D922A95E1F7E32FF0E06E96FFAFEEAF99
:1040C0006E979F01280F391F821693060CF075C05A
:1040D0006C964EAD5FAD6C97841795070CF06DC074
:1040E000A301450D511D241635060CF066C06696D9
:1040F0005FAD6697250E311C621473040CF05DC031
:1041000081E08093520280919702811108C08091D2
:10411000950290919602029714F010921901442092
:1041200031F08CE99FEF9093380180933701169519
:10413000812F8250990B7C01E80CF91CF09212013E
:10414000E092110106950250110B0A0D1B1D1093F0
:104150000C0100930B014090160180911501809095
:104160001301909014016701F701E80FF11D6896A3
:10417000FFAFEEAF689768962EAD3FAD6897C21659
:10418000D3060CF049C020E0442DB401C6010E94C2
:104190003E103FEFC31AD30AEECF80912301823045
:1041A00009F06BCF81E0809397027FEFC71AD70A9F
:1041B000D0929602C092950260CF46E0E7E3F1E02C
:1041C000DE019B9601900D924A95E1F746E0E5E508
:1041D000F2E0DE01959601900D924A95E1F7A21664
:1041E000B3060CF090CF6A966EAD7FAD6A978617D6
:1041F00097070CF088CFC301850D911DE816F906CD
:104200000CF081CF67967FAD6797E70EF11C6E14B7
:104210007F040CF078CF74CF4091100166964FAFB9
:10422000669780910F01A0900D01B0900E0168017A
:104230001801280E311CC214D30464F420E06696E1
:104240004FAD6697B501C6010E943E105FEFC51ADB
:10425000D50AF1CF86E0E7E3F1E0DE015F96019059
:104260000D928A95E1F7809137019091380126E00F
:10427000E1E1F1E0DE01599601900D922A95E1F716
:104280006E964EAD5FAD6E97480F591F20914C0250
:10429000E416F5060CF043C068966EAD7FAD6897E6
:1042A00086179707E4F5B301650D711D861697060D
:1042B000B4F5840C911C681479048CF521112FC07D
:1042C00080914B028F5F80934B022091620230916C
:1042D0006302C90101969093630280936202809108
:1042E000490290914A02AC014F5F5F4F50934A02DE
:1042F0004093490241E040934C0240939102409127
:1043000078024F5F4093780240916702411130C0BC
:1043100080919202811140C010924C023DC036E063
:10432000E7E3F1E0DE01539601900D923A95E1F753
:1043300036E0EBE0F1E0DE011D9601900D923A953A
:10434000E1F704171507FCF482159305E4F4C301A3
:10435000850D911DA816B906B4F466960FAD669743
:10436000A00EB11C6A147B0474F42111D1CFA8CF24
:104370002E5F3F4F30936302209362020296909328
:104380004A02809349028091920290914C029111CD
:10439000C1CF81111092780280914D02823009F0D4
:1043A0005AC080912301813039F5409155025091D6
:1043B00056022091170130911801C9010196481742
:1043C0005907D1F425503109032E000C440B550B2D
:1043D00060915C0270915D0280911C0190911D01C1
:1043E000680F791F072E000C880B990B0E9453133E
:1043F00070930A016093090180917702813059F529
:1044000040915C0250915D0220914E0230914F022A
:10441000C901019600910301109104014817590741
:10442000B9F525503109032E000C440B550B609152
:1044300055027091560280911A0190911B01680FEC
:10444000791F072E000C880B990B0E945313709351
:104450000801609307018091770200910301109198
:10446000040181119BC180912301823089F48091E4
:10447000090190910A01909302018093010120911A
:10448000480242EE5CE0B801645F7F4F0E94180E64
:10449000809147028F5F809347028A3008F0FCC307
:1044A0001092480286E0E4E2F1E0DE011796019006
:1044B0000D928A95E1F76091240170912501209178
:1044C000260130912701409128018091290196E031
:1044D000E1E0F1E0DE01119601900D929A95E1F78D
:1044E000E0910101F0910201460F572F511DE41791
:1044F000F5070CF04AC090910501E90FF11D6E1708
:104500007F070CF042C0820F932F911D08171907E7
:10451000E4F580910601080F111D20173107ACF555
:1045200080915302882389F181E080939102209148
:10453000620230916302C9010196909363028093F5
:1045400062028091490290914A02AC014F5F5F4F35
:1045500050934A024093490246EF5FEF50930A019D
:10456000409309015093080140930701409167026D
:10457000442359F02E5F3F4F309363022093620231
:10458000029690934A028093490280917802853086
:1045900049F583E0809391022091490230914A02CB
:1045A000C901059690934A02809349028091620264
:1045B00090916302AC014B5F5F4F50936302409355
:1045C00062021092780240916702442379F0265FDC
:1045D0003F4F30934A02209349020A969093630218
:1045E00080936202809191028330A9F480916702E6
:1045F000882309F4DFC089E690E0909371028093EC
:1046000070028CE090E090937302809372028EEDC2
:104610009CE00E9423108091460290E0880F991F31
:10462000FC01EB56FE4F2081318130936E022093C6
:104630006D0283589E4FFC018081918190936C02A2
:1046400080936B0284E00E94690E8823C1F0809100
:1046500053028823A1F080914502863080F083E0E8
:104660008093760280E48093900087E893E19093B2
:104670009900809398001092530210924502809105
:1046800051028111A6C010924402F0905302209171
:10469000440260912601709127010091240110913C
:1046A0002501F110A9C040916D0250916E026F5F1B
:1046B0007F4FC8010E94180EE0904502E394E092FB
:1046C000450280912201882379F184E00E94690EDD
:1046D000882351F1F11028C080915C0290915D0215
:1046E00020911C0130911D01820F931F80179107AB
:1046F000DCF4809155029091560208171907A4F432
:10470000F5E0FE1588F483E08093760280E48093E0
:10471000900087E893E1909399008093980081E05E
:1047200080935302109245028091220181112AC088
:1047300084E00E94690E882329F18091530281113F
:1047400021C0209124013091250180915502909142
:10475000560240911A0150911B01840F951F821738
:10476000930784F480915C0290915D0228173907C9
:104770004CF480914502863028F081E0809353020A
:10478000109245020E94D31088E00E94690E88238F
:1047900011F40C94DF1983E00C94F21A823009F0C2
:1047A00077CE80912301811173CE80910701909182
:1047B000080161CE8EE690E09093710280937002C2
:1047C0008CE090E090937302809372028BED9CE0FA
:1047D00020CF809193029091940287709927892B22
:1047E00029F4809144028F5F8093440280914402B7
:1047F000823008F048CF49CF40916B0250916C0253
:10480000645F7F4F56CF20E042EE5CE069E370E0EA
:1048100085E090E00E94180E8FE090E09093710286
:104820008093700289E390E0909373028093720208
:104830008091490290914A020E9423132EE030E0B9
:1048400048E750E06EE070E086E090E00E94950E50
:104850000AE010E0109371020093700285E090E08E
:10486000909373028093720288EC9CE00E94231064
:104870008091930290919402B8010E94172A892B8B
:1048800029F4809144028F5F809344028091440216
:10489000823010F01092440280E40E94690E882356
:1048A000A9F080916F028B3088F482E080937602C9
:1048B00080E4809390008FE097E29093990080933A
:1048C000980080916F028F5F80936F0280E20E9458
:1048D000690E8823A9F080916F02882389F082E015
:1048E0008093760280E4809390008FE097E290932B
:1048F00099008093980080916F02815080936F029D
:1049000040916D0250916E022091440263E270E08A
:104910008CE390E00E94180E10916F021B3008F497
:10492000FDC04CEB5CE066E270E082E390E00E9448
:10493000050E123008F00BC1812F90E0880F991FEF
:10494000FC01EB59FE4F208131813093710220939D
:10495000700225E330E03093730220937202835B90
:104960009E4FFC0180819181009711F00E94D2122C
:1049700021E4A22E21E0B22E3CEEE32E36E0F32E0F
:1049800010E03324339443E0442E55E0852E912CDF
:1049900060E4262EF50151905F01652C712CC090CA
:1049A0004902D0904A0200916F02C614D704A4F0C5
:1049B00084E00E94690E882379F0F70180818111DB
:1049C0000BC0011309C03082C618D708D0924A0222
:1049D000C092490240929102F70181917F018111B9
:1049E00045C0011343C045EB5CE069E170E08EE334
:1049F00090E00E94050E20E042EE5CE069E270E08B
:104A000089E190E00E94180E05E02BE14AE269E19D
:104A100070E090E080E00E946710909271028092B6
:104A200070022EE130E030937302209372028EEA1E
:104A30009CE00E94231033E6351508F492C04DE047
:104A400050E0509371024093700289E290E090939D
:104A5000730280937202652D70E090E080E04AE07E
:104A60000E94DF1288ED91E00E94D21280916F02C5
:104A7000E82FF0E0EE0FFF1FEB56FE4F2081318153
:104A800030936E0220936D02F7013197908191303F
:104A900099F4811311C084E00E94690E882361F0AB
:104AA00010934602409276022092900081EE94E0AC
:104AB00090939900809398008091460281131DC0C5
:104AC00080916F02811319C089E290E09093710286
:104AD00080937002E7E1F0E0F0937302E0937202DA
:104AE00085EA9CE00E94231003E02BE043E365E1AC
:104AF00070E087E290E00E9467101F5F1C3009F0B1
:104B000049CF0E94D31088E00E94690E882311F4D7
:104B10000C94DF1910922A010C94DF1942EC5CE02E
:104B200066E270E08BE490E00E94050E1111F9CE70
:104B300082E390E0909371028093700285E390E0AD
:104B4000909373028093720282ED91E00FCF20E088
:104B500042EE5CE065E570E083E290E00E94180EB2
:104B6000EBCE67E070E070937102609370026DCFDE
:104B70008AE190E0909371028093700207E110E067
:104B8000109373020093720286ED9DE00E94231041
:104B9000109271021092700207E310E010937302FA
:104BA000009372028DEC9DE00E94231080E590E05E
:104BB00090937102809370021093730200937202BB
:104BC00084EC9DE00E94231003E02DE048E564E1C1
:104BD00070E087E190E00E94671080E40E94690E17
:104BE000882319F081E080932A0180E20E94690EF7
:104BF000882311F40C94DF1910922A010E947B1172
:104C00000C94DF1989E290E0909371028093700216
:104C10002EE130E030937302209372028BEB9DE023
:104C20000E94231083E290E09093710280937002BF
:104C300002E310E0109373020093720280EB9DE098
:104C40000E9423101092710210927002109373024E
:104C50000093720203E02DE045E36BE170E085E232
:104C600090E00E94671088E00E94690E882311F48A
:104C70000C94DF190E947B1181E00C94F21A8436A7
:104C8000910509F447CF0C94DF1980911A01909196
:104C90001B018A0D9B1DD8C991E090934802843175
:104CA00009F000CC10924702FDCB8F929F92AF92F9
:104CB000BF92CF92DF92EF92FF92CF93DF93EC01FE
:104CC000688179818A819B816115710581059105D2
:104CD00021F464E279ED8BE597E02DE133EF41E0DB
:104CE00050E00E940F2749015A019B01AC01A7EA3D
:104CF000B1E40E942E276B017C01ACEEB4EFA5015C
:104D000094010E943C27C60ED71EE81EF91EF7FE2E
:104D100006C081E0C81AD108E10880E8F80AC88214
:104D2000D982EA82FB82C701B6019F77DF91CF91DA
:104D3000FF90EF90DF90CF90BF90AF909F908F90BB
:104D400008958F929F92AF92BF92CF92DF92EF928F
:104D5000FF9260913D0170913E0180913F019091E1
:104D60004001611571058105910521F464E279ED39
:104D70008BE597E02DE133EF41E050E00E940F27F3
:104D800049015A019B01AC01A7EAB1E40E942E2718
:104D90006B017C01ACEEB4EFA50194010E943C27AD
:104DA000C60ED71EE81EF91EF7FE06C081E0C81A1F
:104DB000D108E10880E8F80AC0923D01D0923E0196
:104DC000E0923F01F0924001C701B6019F77FF904A
:104DD000EF90DF90CF90BF90AF909F908F9008950D
:104DE00060933D0170933E0180933F019093400199
:104DF0000895F999FECF92BD81BDF89A992780B5A3
:104E00000895262FF999FECF1FBA92BD81BD20BD0E
:104E10000FB6F894FA9AF99A0FBE01960895052EE6
:104E200097FB1EF400940E94262757FD07D00E948E
:104E3000412707FC03D04EF40C942627509540954B
:104E4000309521953F4F4F4F5F4F08959095809536
:104E5000709561957F4F8F4F9F4F08950E946327F4
:104E6000A59F900DB49F900DA49F800D911D1124BE
:104E70000895B7FF0C942E270E942E27821B930BB8
:104E80000895A1E21A2EAA1BBB1BFD010DC0AA1F8B
:104E9000BB1FEE1FFF1FA217B307E407F50720F0A3
:104EA000A21BB30BE40BF50B661F771F881F991F1E
:104EB0001A9469F760957095809590959B01AC0167
:104EC000BD01CF010895A29FB001B39FC001A39F70
:104ED000700D811D1124911DB29F700D811D112433
:104EE000911D08955058BB27AA270E948A270C9429
:104EF0000B290E94D22838F00E94D92820F039F4DA
:104F00009F3F19F426F40C94CF280EF4E095E7FBAC
:104F10000C94C928E92F0E94302958F3BA17620768
:104F200073078407950720F079F4A6F50C945229AD
:104F30000EF4E0950B2EBA2FA02D0B01B9019001B4
:104F40000C01CA01A0011124FF27591B99F0593FF8
:104F500050F4503E68F11A16F040A22F232F342F40
:104F60004427585FF3CF469537952795A795F0408E
:104F70005395C9F77EF41F16BA0B620B730B840BA3
:104F8000BAF09150A1F0FF0FBB1F661F771F881F5B
:104F9000C2F70EC0BA0F621F731F841F48F48795B3
:104FA00077956795B795F7959E3F08F0B0CF9395A5
:104FB000880F08F09927EE0F9795879508950E941E
:104FC000E228E3950C941C290E94F8270C940B29E5
:104FD0000E94D92858F00E94D22840F029F45F3F5F
:104FE00029F00C94C92851110C9453290C94CF2802
:104FF0000E94302968F39923B1F3552391F3951B4F
:10500000550BBB27AA2762177307840738F09F5FE9
:105010005F4F220F331F441FAA1FA9F335D00E2E56
:105020003AF0E0E832D091505040E695001CCAF7C3
:105030002BD0FE2F29D0660F771F881FBB1F261786
:1050400037074807AB07B0E809F0BB0B802DBF015D
:10505000FF2793585F4F3AF09E3F510578F00C942C
:10506000C9280C9453295F3FE4F3983ED4F3869506
:1050700077956795B795F7959F5FC9F7880F911D4D
:105080009695879597F90895E1E0660F771F881F39
:10509000BB1F621773078407BA0720F0621B730BEC
:1050A000840BBA0BEE1F88F7E09508950E945D28E7
:1050B0006894B1110C94532908950E94382988F0FE
:1050C0009F5798F0B92F9927B751B0F0E1F0660FCC
:1050D000771F881F991F1AF0BA95C9F714C0B1300D
:1050E00091F00E945229B1E008950C945229672F43
:1050F000782F8827B85F39F0B93FCCF3869577953C
:105100006795B395D9F73EF4909580957095619524
:105110007F4F8F4F9F4F0895E89409C097FB3EF44F
:1051200090958095709561957F4F8F4F9F4F9923F4
:10513000A9F0F92F96E9BB279395F6958795779572
:105140006795B795F111F8CFFAF4BB0F11F460FF32
:105150001BC06F5F7F4F8F4F9F4F16C0882311F08A
:1051600096E911C0772321F09EE8872F762F05C09E
:10517000662371F096E8862F70E060E02AF09A9539
:10518000660F771F881FDAF7880F9695879597F92E
:10519000089597F99F6780E870E060E008959FEFB9
:1051A00080EC089500240A941616170618060906BE
:1051B000089500240A94121613061406050608958D
:1051C0000C94CF280E943829D8F3E894E0E0BB275C
:1051D0009F57F0F02AED3FE049EC06C0EE0FBB0F01
:1051E000661F771F881F28F0B23A6207730784078B
:1051F00028F0B25A620B730B840BE3959A9572F701
:10520000803830F49A95BB0F661F771F881FD2F73E
:1052100090480C94D029092E0394000C11F4882393
:1052200052F0BB0F40F4BF2B11F460FF04C06F5F5E
:105230007F4F8F4F9F4F0895EF93E0FF07C0A2EA83
:105240002AED3FE049EC5FEB0E948A270E940B2980
:105250000F90039401FC9058ECEAF0E00C94DC29E8
:1052600057FD9058440F551F59F05F3F71F0479517
:10527000880F97FB991F61F09F3F79F087950895FC
:10528000121613061406551FF2CF4695F1DF08C01B
:10529000161617061806991FF1CF86957105610538
:1052A00008940895E894BB2766277727CB0197F9E0
:1052B00008950E946C290C940B290E94D22838F082
:1052C0000E94D92820F0952311F00C94C9280C9441
:1052D000CF2811240C9453290E94302970F3959FF4
:1052E000C1F3950F50E0551F629FF001729FBB27DD
:1052F000F00DB11D639FAA27F00DB11DAA1F649F79
:105300006627B00DA11D661F829F2227B00DA11D2B
:10531000621F739FB00DA11D621F839FA00D611DB1
:10532000221F749F3327A00D611D231F849F600DD2
:10533000211D822F762F6A2F11249F5750409AF0FB
:10534000F1F088234AF0EE0FFF1FBB1F661F771F87
:10535000881F91505040A9F79E3F510580F00C9452
:10536000C9280C9453295F3FE4F3983ED4F3869503
:1053700077956795B795F795E7959F5FC1F7FE2BF2
:10538000880F911D9695879597F908959F930E9490
:10539000E2280F9007FCEE5F0C941C299F3F31F030
:1053A000915020F4879577956795B795880F911D53
:1053B0009695879597F908959F938F937F936F9311
:1053C000FF93EF939B01AC010E945929EF91FF914C
:1053D0000E94F0292F913F914F915F910C94592990
:1053E000DF93CF931F930F93FF92EF92DF927B0196
:1053F0008C01689406C0DA2EEF010E946C29FE0130
:10540000E894A5912591359145915591A6F3EF0129
:105410000E948A27FE019701A801DA9469F7DF90BC
:10542000EF90FF900F911F91CF91DF910895AA1BEC
:10543000BB1B51E107C0AA1FBB1FA617B70710F07F
:10544000A61BB70B881F991F5A95A9F780959095B1
:10545000BC01CD010895EE0FFF1F0590F491E02DE2
:065460000994F894FFCF4F
:1054660010F6FF2D000505F6FFF6FF530037000482
:10547600020D003700040241000114001E00500016
:105486001E0001020F002900080F05FFFFFFFF00A5
:10549600E1000000000000F6FFF6FF020201000036
:1054A600000001012D2D32323232323232D201DB8E
:1054B60001E401EC01F301F90101020B0212021DE4
:1054C6000227022E0232002A002C002E0032002D66
:1054D60000260030002300250030002F007603341C
:1054E60003F202E005B00266022402E201A0015EB8
:1054F600011401CA00A60664062206E0059E0554AC
:10550600051205D0048E044C040204B80300C180C1
:105516008100000000000000FF09970B200A150A11
:10552600660A240A420A00000000C00F120BEC11A2
:10553600EB114E494E4A41000D0A00564943544F5D
:10554600524941004D555348424F590053454E5319
:1055560045490050414E44410046494C4D4F544543
:10556600004D522E424C494E4B5900504841524133
:1055760050004452554D4D59464953480056414DE9
:10558600504952494353004D4C58585870004553A2
:0655960050626F79000075
:00000001FF
